:0200000460009A
:100000004643464200000156000000000103030081
:1000100000000000000000000000000000000000E0
:1000200000000000000000000000000000000000D0
:1000300000000000000000000000000000000000C0
:1000400000000000010408000000000000000000A3
:100050000000800000000000000000000000000020
:100060000000000000000000000000000000000090
:100070000000000000000000000000000000000080
:10008000EB04180A063204260000000000000000FD
:10009000050404240000000000000000000000002F
:1000A0000000000000000000000000000000000050
:1000B0000604000000000000000000000000000036
:1000C0000000000000000000000000000000000030
:1000D00020041808000000000000000000000000DC
:1000E0000000000000000000000000000000000010
:1000F0000000000000000000000000000000000000
:10010000D8041808000000000000000000000000F3
:100110000204180804200000000000000000000095
:1001200000000000000000000000000000000000CF
:10013000600400000000000000000000000000005B
:1001400000000000000000000000000000000000AF
:10015000000000000000000000000000000000009F
:10016000000000000000000000000000000000008F
:10017000000000000000000000000000000000007F
:10018000000000000000000000000000000000006F
:10019000000000000000000000000000000000005F
:1001A000000000000000000000000000000000004F
:1001B000000000000000000000000000000000003F
:1001C000000100000010000001000000000000001D
:1001D000000001000000000000000000000000001E
:1001E000000000000000000000000000000000000F
:1001F00000000000000000000000000000000000FF
:10020000FFFFFFFFFFFFFFFFFFFFFFFFFFFFFFFFFE
:10021000FFFFFFFFFFFFFFFFFFFFFFFFFFFFFFFFEE
:10100000D100204327140060000000000000000011
:10101000201000600010006000500260000000001E
:1010200000000060005C020000000000FFFFFFFF06
:10103000FFFFFFFFFFFFFFFFFFFFFFFFFFFFFFFFC0
:10104000FFFFFFFFFFFFFFFFFFFFFFFFFFFFFFFFB0
:10105000FFFFFFFFFFFFFFFFFFFFFFFFFFFFFFFFA0
:10106000FFFFFFFFFFFFFFFFFFFFFFFFFFFFFFFF90
:10140000884207D0904205D251F8043B40F8043B93
:101410008242F9D87047884204D2002340F8043B46
:101420008142FBD870472DE9F843644A644B5A6403
:10143000644A1A644FF42A029A63634B9D46BFF3D1
:101440004F8FBFF36F8F00F023FA604B0822604983
:101450006048C3F85421604AFFF7D2FF5F4A6049F1
:101460006048FFF7CDFF60496048FFF7D4FF4FF4B5
:1014700070025F4B5F491A6000235F4A42F82310F5
:1014800001335D4DB02BF9D15C4B80215C4A03F8F0
:10149000011B9342FBD14D4C4FF08037594A5A4BB8
:1014A000DFF89C91DFF89C811D60C4F80471C4F8DA
:1014B0000091C4F8F470C4F8F0801368534E43F4FC
:1014C000E02313604FF0FF32F36923F07F0343F012
:1014D0004003F361736A23F07F0343F040037362B8
:1014E000374B9A66DA661A675A6700F0D4F9484BA8
:1014F0006322AB63474BEB630025474B1A60032223
:101500005D6043F8042C454AC3F80C2D444A136827
:1015100043F080731360434A136843F00103136080
:10152000414B1A68414B1A6000F06EFBC4F804711D
:101530003F48C4F80091C4F8F470C4F8F08000F09B
:10154000EBFCF36E43F44053F3663A4B1D60C3F873
:101550000851C3F81851C3F82851C3F8385103F59E
:10156000A0239A6BD20708D4334A5A6542F6156213
:101570001A659A6B42F001029A639A6842F001126E
:101580009A6000F0F7F900F097FC00F0CDFC00F055
:1015900069FB00F07EF9294A1368284C132BFBD90C
:1015A00000F0EEFB2368B3F5967FFBD300F072F9F1
:1015B00000F0B6FC00F0C4FC30BFFDE7FFAAAAAA09
:1015C00000C00A40070020000000062000800D40F7
:1015D000902600600000000020E70100C03E0020CF
:1015E000B40D02600000002040880320C03E0020AF
:1015F00088ED00E019BD0100003C002000E400E09F
:10160000A0E400E024ED00E008ED00E000C00F40A1
:1016100001CF010005CF010014E000E00000202010
:10162000FCED00E0001000E0041000E02478002051
:101630000046C323004008400000C0562878002020
:101640001B1018200C0D1113F8B58F005C4B0C46C5
:1016500038461A6000F078FC5A4B054618601E4662
:1016600020B92021584800F083FCA4E03A4600212C
:1016700000F04EFC25F01F033D44BFF34F8F534A4B
:10168000136020339D42FBD8BFF34F8FBFF36F8FA2
:101690004F4B32681A604F4B4F4A1C804F4B1A60B9
:1016A0004F4AD36F43F44023D3674E4B4E4A1A67D9
:1016B0004FF43162C3F8802042F21072C3F89020D8
:1016C0001A6F22F480521A67196F464A0029FBDA12
:1016D000D2F870314FF48035444923F40003444874
:1016E000444E23F40043C2F87031136F23F4803367
:1016F000136702F51032D36923F4406343F40063A7
:10170000D361936A23F4FF7323F0010343F0F903D9
:101710009362A2F5A022536823F4002323F0070369
:1017200043F4002353600022334B1A66DA601961D8
:1017300032495D619861D961C3F8E020C3F88C201B
:10174000C3F89060C3F89450C3F898000320C3F81E
:101750009C102B49C1F82801C1F82401C1F880016F
:10176000D3F88810274841F01041C3F88810264963
:1017700099602649C1F8200125484FF08075056021
:1017800080F883237F20234A1070234AC1F8582110
:10179000D021224A224811704021A2F23E3211602B
:1017A00016219A6842F480729A6000F0E1FB2146AB
:1017B0001C4800F0C1FB1B48BDE8F84000F0CCBB62
:1017C0006869002000420020BF2B002070EF00E07D
:1017D000B46900203878002020403840BC37002011
:1017E00000C00F4000800D401B2011000100004789
:1017F000130F01000100000700403840000F0F0FD9
:1018000000801F402100000001000090003C0020EB
:1018100004E100E038E400E07500000046E400E088
:10182000E02B002030370020024B186808B100F090
:1018300097BB7047004200200004084B012200F4CF
:101840007020C3F8A010C3F8A400C3F8B0205A69F0
:10185000D207FCD50122014B5A61704700402A4053
:10186000094B0A4AC3F8A000C3F8A4200122C3F818
:10187000B0205969044AC907FBD5D2F800012123D9
:1018800080B25361704700BF00402A40040003004B
:1018900070477047704710B5214A0020214C102333
:1018A000214920601360214B1960112111602049EA
:1018B0001960122111601F4919601F4911601F49E9
:1018C00019601F4911601F4919601F4941F0150136
:1018D00011601E49196001F181510D3111601C49DF
:1018E00019601C4911601C4919601C4911601C4990
:1018F00019601C4911601C4A1A6001232360BFF360
:101900004F8FBFF36F8F194B1860BFF34F8FBFF32B
:101910006F8F174A136843F44033136010BD00BF44
:101920009CED00E094ED00E03F000010A0ED00E031
:101930002500080309001000130020002100020701
:10194000140000202500081340880320090000101F
:1019500027000B131700004033001013180000601D
:101960002F000B07190000702F000B1350EF00E041
:1019700014ED00E073B58F4B4FF400548E4A8F493D
:10198000C3F85C22C3F8601248F20C71C3F86422F9
:10199000A2F53042C3F8682202F5E042C3F86C2297
:1019A000C3F87022C3F87422C3F878221822DA66CA
:1019B0001A675A679A67DA67C3F88020C3F88420E9
:1019C000C3F888200122C3F82C27C3F83027C3F8B6
:1019D0003427C3F83827C3F83C27C3F85027784A80
:1019E000936923F0604323F4407343F0204343F4AE
:1019F00040739361D2F8843043F00C03C2F8843012
:101A0000704B1A6842F002021A601A6811406E4A5E
:101A10000A436E491A604FF0FF325A6002F57702AE
:101A2000886802F56052024042F000529A60DA681B
:101A300022F07802DA60664A186A024042F00042F8
:101A400042F040021A62624A186A0240614842F05B
:101A5000004242F040025A625F4A9A62DA62D1F86A
:101A6000B82022F03F0242F00102C3F8B820D1F8BA
:101A7000BC2040F2056122F03F0242F00102C3F8AF
:101A8000BC2000221A611C661867C3F880105C66CF
:101A90005867C3F884101968504821F00201196092
:101AA0004F4999610221D9614E4941F8042B814285
:101AB000FBD11A6842F001021A60424A1468414B95
:101AC00014F00104FAD1464A0226214620469A61C2
:101AD00040F2F562DE61C3F8002240F26642C3F8CC
:101AE000102240F29942C3F820223F4AC3F8302224
:101AF00042F20142C3F8342240F23542C3F8402298
:101B00003A4AC3F850223A4AC3F85422394AC3F831
:101B1000602242F20122C3F86422FFF78DFE2146C3
:101B20000120FFF789FE21463046FFF785FE20465B
:101B3000FFF796FE45F60D530546984231D12146F2
:101B40000420FFF779FE20464FF400012A4CFFF7EE
:101B500073FE4FF400010120FFF76EFE4FF4000109
:101B60003046FFF769FE4FF40000FFF779FEA84208
:101B700007D14FF400010420FFF75EFE102323700D
:101B800001E0082323701D4900231D4A2078521AC2
:101B90000093012302EB00521A4800F0C9F902B089
:101BA00070BD10222146174802B0BDE8704000F019
:101BB000AFB900BF00801F40F9B00100F91001006B
:101BC00000C00F4000402A401200FFFF00802A4062
:101BD00000FFF07C63000200FF000F8300432A40F7
:101BE000F05AF05A00422A409F041830EB06180AB7
:101BF000063201263806180A6F870320000080701D
:101C000000000070E4870320F0B5154B40204FF42E
:101C100080314FF480544FF400554FF4404643F266
:101C200042071A6912F0020F03D09E6159619F6149
:101C3000F7E712F4005F01D15D61F2E712F4805F13
:101C400001D15C61EDE7002AEBDA12F4803F01D0AC
:101C50009961E6E7520601D45861E2E7F0BD00BFA2
:101C600000800D40394AB3EE096A394813689FED88
:101C7000395A23F0010310B513600323364C136166
:101C8000364BD3F8E030D9B2016007EE901AC3F3B7
:101C90000B201B0DB8EEE77A314907EE900A206061
:101CA000F8EEE76A07EE903A37EE455A2D4BF8EE1C
:101CB000E77A37EE466A77EEE67A81ED006A25EE3E
:101CC000275AC3ED007A1368C5EE065A75EEA65A78
:101CD000FCEEE55A15EE901ADFED235A37EE657AE1
:101CE00043EA0153136027EE277A204B66EE277AEA
:101CF000D2F81011C7EE065A35EEA67ABCEEC77AB6
:101D000017EE100A87EE867A03EA00430B43C2F807
:101D10001031D2F8101177EE267AFCEEE77A17EE42
:101D2000903AC3F30B030B43C2F81031136843F02E
:101D30000203136000220E4B1A700E4A0E4BC3F8BA
:101D4000402101220D4B1A6010BD00BF80810D4063
:101D5000147800200000AA421078002000441F40A0
:101D6000187800201C7800200000B4420000FF0F0B
:101D700040E400E0BDBE0100003C002008E100E0BE
:101D800038B540F661722D4BC3F8202100F0E0F821
:101D90002B4A2C49D2F8803043F00303C2F880303C
:101DA00040F20442284BC3F86021284A10680140E1
:101DB00019B9D3F8A811890718D04FF00041516321
:101DC000D3F8402142F00202C3F840211E4AD2F863
:101DD00040319B07FBD44FF400321D4B19201A6091
:101DE0004FF00042194B9A6300F0BEF8174B0021E8
:101DF0004FF08042174D144C9A63284619600A230D
:101E00004FF42072C4F8A83100F082F84FF4810337
:101E1000114A2B604FF480032B6440F24313C4F843
:101E20005851C4F848310D4BC3F804220C4B4FF401
:101E300000321A600123C4F8403138BD00800D40E3
:101E400000C00F40001C1E0000002E4000900D40FE
:101E50008CE200E00000002079C10100003C00207D
:101E60000CE100E008B50E4B1B6E9B0701D4FBBED6
:101E700016E072B600220B4BC3F84021A3F50D13F8
:101E8000094A1A64A3F1FF53A3F52B239D46BFF320
:101E90004F8F064B06480360064B1B689B689847AC
:101EA00000441F4000002E4003002000000012EB01
:101EB000008020201C0020000F4BDA6E42F44032DC
:101EC000DA66DA6E42F44072DA66A3F5603340F205
:101ED00037625A64A0229A649A6C1206FCD4074BAB
:101EE00040F237625A64A0229A649A6C12F080021F
:101EF000FBD1034B1A70704700C00F4000800C40AC
:101F000066870320F8B500BFF8BC08BC9E46704742
:101F10005FF800F059BB01005FF800F0D1D3010079
:101F20005FF800F075DB01005FF800F00DD70100ED
:101F30005FF800F0CBD701005FF800F07FD101001F
:101F40005FF800F0B9D201005FF800F0C1DB0100DA
:101F50005FF800F0D5C601005FF800F0C1D00100C5
:101F60005FF800F0D1DB01005FF800F0F9BB010081
:101F70005FF800F065CB01009D02000069D0000011
:081F8000F1E70000695B0100BC
:101F8800EBFE905646422D313938390002020100E5
:101F9800027000A005F90300090002000000D0ED5E
:101FA8005358C032C2C036552336C0311FF5119D73
:101FB800C00E0FCD7DF33C28281100010E1ACD7DEF
:101FC800F321010022ABC021003F119DC00E27CD97
:101FD8007DF3C3000157C0CD000079E6FEFE022064
:101FE800073AC2C0A7CA22401177C00E09CD7DF3B7
:101FF8000E07CD7DF318B4426F6F74206572726F4F
:10200800720D0A507265737320616E79206B657961
:1020180020666F722072657472790D0A24004D5320
:1020280058444F532020535953000000000000002B
:102038000000000000000000000000000000000098
:102048000000000000000000000000000000F32A6B
:1020580051F3110001190100011100C1EDB03AEE70
:10206800C04711EFC0210000CD5152F376C9186462
:102078003AAF80F9CA6D48D3A50C8C2F9CCBE9895F
:10208800D20032264094611920E6806D8A00000053
:102098000000000000000000000000000000000038
:1020A8000000000000000000000000000000000028
:1020B8000000000000000000000000000000000018
:1020C8000000000000000000000000000000000008
:1020D80000000000000000000000000000000000F8
:1020E80000000000000000000000000000000000E8
:1020F80000000000000000000000000000000000D8
:1021080000000000000000000000000000000000C7
:1021180000000000000000000000000000000000B7
:1021280000000000000000000000000000000000A7
:102138000000000000000000000000000000000097
:102148000000000000000000000000000000000087
:102158000000000000000000000000000000000077
:102168000000000000000000000000000000000067
:102178000000000000000000000000000000000057
:102188005A281B0149474438143A32060B262221A3
:102198008101968111FF823A550A023628012101F0
:1021A80029000000000000000000000000000000FE
:1021B8000000000000000000000000000000000017
:1021C8000000000000000000000000000000000007
:1021D80000000000000000000000000000000000F7
:1021E80000000000000000000000000000000000E7
:1021F80000000000000000000000000000000000D7
:1022080000000000000000000000000000000000C6
:1022180000000000000000000000000000000000B6
:1022280000007F41414141417F0000273127217152
:102238000000007741771171000000774177417104
:102248000000001751774141000000771177417174
:102258000000007711775171000000774147414134
:1022680000000077517751710000000020243E04DF
:10227800000000594B5B4BD9000000000000000033
:102288000000000000000000000000000000000046
:102298000000000000000000000000000000000036
:1022A80000000000000000000000183C3C18180066
:1022B8001800363600000000000036367F367F36BC
:1022C80036000C3E031E301F0C00006333180C66EA
:1022D80063001C361C6E3B336E00060603000000CC
:1022E8000000180C0606060C1800060C1818180C26
:1022F800060000663CFF3C660000000C0C3F0C0C1E
:10230800000000000000000C0C060000003F000068
:10231800000000000000000C0C006030180C0603E0
:1023280001003E63737B6F673E000C0E0C0C0C0CB7
:102338003F001E33301C06333F001E33301C303341
:102348001E00383C36337F3078003F031F3030336F
:102358001E001C06031F33331E003F3330180C0CBD
:102368000C001E33331E33331E001E33333E301829
:102378000E00000C0C00000C0C00000C0C00000CF3
:102388000C06180C0603060C180000003F00003F5E
:102398000000060C1830180C06001E3330180C000C
:1023A8000C003E637B7B7B031E000C1E33333F33E4
:1023B80033003F66663E66663F003C66030303667D
:1023C8003C001F36666666361F007F46161E164698
:1023D8007F007F46161E16060F003C6603037366D1
:1023E8007C003333333F333333001E0C0C0C0C0C9E
:1023F8001E007830303033331E006766361E36666E
:1024080067000F06060646667F0063777F7F6B636B
:10241800630063676F7B736363001C3663636336B3
:102428001C003F66663E06060F001E3333333B1E14
:1024380038003F66663E366667001E33070E38333F
:102448001E003F2D0C0C0C0C1E003333333333337A
:102458003F0033333333331E0C006363636B7F7782
:1024680063006363361C1C3663003333331E0C0C65
:102478001E007F6331184C667F001E06060606069E
:102488001E0003060C18306040001E181818181893
:102498001E00081C36630000000000000000000059
:1024A80000FF0C0C18000000000000001E303E3336
:1024B8006E000706063E66663B0000001E330333C7
:1024C8001E003830303E33336E0000001E333F03A9
:1024D8001E001C36060F06060F0000006E33333E42
:1024E800301F0706366E666667000C000E0C0C0C73
:1024F8001E00300030303033331E070666361E3675
:1025080067000E0C0C0C0C0C1E000000337F7F6B58
:10251800630000001F333333330000001E333333AE
:102528001E0000003B66663E060F00006E33333E19
:10253800307800003B6E66060F0000003E031E3038
:102548001F00080C3E0C0C2C1800000033333333EA
:102558006E0000003333331E0C000000636B7F7F76
:102568003600000063361C36630000003333333E08
:10257800301F00003F190C263F00380C0C070C0CCC
:1025880038001818180018181800070C0C380C0C0C
:1025980007006E3B00000000000000000000000083
:1025A8000000A2A0D0EBE5B9334487C068B6B726CF
:1025B80099C71603550053004200200053006500D8
:1025C8007200690061006C00180354006500650022
:1025D8006E00730079006400750069006E006F007A
:1025E8000403090409024B00020100C032080B0071
:1025F8000202020100090400000102020100052490
:102608000010010524010101042402060524060026
:10261800010705820310001009040100020A0000E6
:102628000007050302400000070584024000000976
:10263800024B00020100C032080B00020202010036
:10264800090400000102020100052400100105240C
:10265800010101042402060524060001070582037E
:1026680010000509040100020A0000000705030222
:10267800000200070584020002000A060002EF02B9
:08268800014001000100000007
:10269000000000000000000000000000000000003A
:1026A000000000000000000000000000000000002A
:1026B0000E480F4B02881B6833F8121001320D4B85
:1026C0001B6819800C4B19884B00013B13409BB2CF
:1026D000038013B9094A137004E0994205D101221D
:1026E000064B1A704022064B1A6070473A78002059
:1026F000B4690020BC370020387800204E39002013
:1027000008E200E0194B1A78194B70B5194E1A4DB2
:102710001A4C8AB131881B682868984731882A6822
:10272000490822F01F0302EB8102BFF34F8F2360A1
:1027300020339A42FBD814E031882A6848081B6885
:1027400002EB8000984733882A685B089900531889
:1027500023F01F020B44BFF34F8F226020329342BD
:10276000FBD8BFF34F8FBFF36F8F70BD4E39002082
:1027700068690020387800200042002070EF00E0F7
:10278000024B1B780BB10FF07DBF704771870320A0
:10279000154B164910B51879154BC8771A78154C92
:1027A00001322478D2B21A701A78944208D80022E2
:1027B0001A70114A12781AB1887601210F4A1170E5
:1027C0001A780F4B53F8222022F01F0302F5204203
:1027D000BFF34F8F0B490B6020339A42FBD8BFF3F6
:1027E0004F8FBFF36F8F10BDF076002000800E403A
:1027F000DC7C0020DA7C00200D8703200687002087
:102800000077002068EF00E0324A70B5B2F86E3011
:10281000C3F30E03A2F86E30B2F8743023F0300325
:102820001B041B0CA2F8743072B62B4C2B4B216886
:102830002B4D29B1187801211BF03CFD002303E04A
:1028400018781BF037FD01232B60236801332360C8
:1028500040F20D232168B1FBF3F203FB1213214A6E
:10286000236023681268283BD3401F4A12689342B2
:102870002CD21E4A1E4916681E4A1F4D14680A684B
:102880006343F01810601D4A126812F0800F15BFE4
:1028900002F00F0202F00C02D2189B1814BFB318FA
:1028A0009B192A681360164A0B79D3762B79D37655
:1028B00020F01F022318BFF34F8F12490A60203205
:1028C0009342FBD8BFF34F8FBFF36F8F62B6BFF356
:1028D0004F8F70BD00401E406469002054390020B5
:1028E000EC760020706900205C6900202043002005
:1028F0009877002060690020907700203C770020C6
:1029000000800E4070EF00E010B5054C237833B91D
:10291000044B13B10448AFF300800123237010BDB2
:10292000F05900200000000024E70100084B10B51A
:102930001BB108490848AFF300800848036803B991
:1029400010BD074B002BFBD0BDE81040184700BF5F
:1029500000000000F459002024E70100C03E0020E0
:102960000000000038B500220D4600F1240300F1FC
:102970003C0143F8042F8B4243F8182CF9D11A4B31
:10298000024603F1100153F8044B8B4242F8044B0A
:10299000F9D10024056480F85240214680F8514066
:1029A00080F8504080F8454080F844408464C46416
:1029B00080F84640284600F0EFFD2146681C00F0F4
:1029C000EBFD2146A81C00F0E7FDE81C022100F009
:1029D000E3FD281D022100F0DFFD681D0221BDE896
:1029E000384000F0D9BD00BF3628002001F00F01AB
:1029F00080F84610704790F84630C05C70470A0671
:102A0000F8B504460D461AD501F07F05416B19B1A2
:102A1000C369002B08BF0021A36B13B1226A02B166
:102A20001944E36B13B1626A02B1194439B102313E
:102A300003234FF48E7091FBF3F100F0A3FD022D00
:102A400094F8446004F1100718BF84F8455000253D
:102A50006EB1062D0BD0F30705D5206CBA69396825
:102A6000284400F081FD013576100437F0E700239B
:102A700084F84430F8BD00000F29F0B500F2BA80A8
:102A80008B1F092B06D8DFE803F0243D6F6F6F978B
:102A900097A8A8A842544C08C3792341DA0700F14B
:102AA000A98001F0FE01251D4318415C5A78524B64
:102AB000120202F470620A44013293FBF2F2012323
:102AC00040F8252090F84420A340134380F8443078
:102AD00085E0C4798271E14311F0380F00F08A80FB
:102AE00002F01F02444B01F03801013293FBF2F275
:102AF000230758BFC261E70658BF0262A60658BF47
:102B0000426253E0C179002490F8443000F110068D
:102B10005140394FA646C27101F03F010B4380F886
:102B2000443000295BD0062C59D0CD0717D5D307E8
:102B300002D5C6F800E012E0022CD5BF00EB44033A
:102B400083795B7803F01F03DFBF1B0203F470651A
:102B500010F814305B19013397FBF3F33360013441
:102B6000490852080436DCE7425402F010040839E0
:102B700004F0FF03C9B22CB112F0040F14BF0022FD
:102B8000FF2203E002F00F0202EB021200EB8104CD
:102B90000033A26218BF01236263421882F85030EA
:102BA0000923C27903FA01F121EA020190F84430C5
:102BB000194380F8441012E04254027BC37A03EBBD
:102BC00002234FF47A7201331B0153430A4A93FBE9
:102BD000F2F383640023C364F0BD4254F0BD90F867
:102BE00045303BB990F8443023B10221BDE8F040B4
:102BF000FFF705BFF0BD00BFF5B401000A4690F82D
:102C00004610FFF739BF2DE9F047846C002C00F027
:102C1000B180C36C19448C4202DDC164BDE8F08709
:102C200091FBF4F30A0204FB131100F14F0500F1CC
:102C30002803C164002109274FF002084FF0010C5E
:102C40008E4692FBF4F200F1340415F8019FB9F1BD
:102C5000000F7ED015F8486CF6067AD5467B06F054
:102C60000F06043E0B2E07D8DFE806F00B0B0B0B0C
:102C700017061C31384050401E68B61A26EAE67620
:102C800005E01E681644B6F5807FA8BF00261E60CA
:102C90002660002E51D12E704FE01E68B61A48BF34
:102CA000FF2620E0B9F1020F1E6808D11644FF2E5E
:102CB000A8BFFF26FF2E1E6026603ED130E0B61A68
:102CC00026EAE6761E602660002E36D133E01E68C6
:102CD000B61A48BFFF261E60266012E01E68164422
:102CE000FF2EC8BF00261E60266026E01E68164420
:102CF000FF2EB146A8BF4FF0FF09C3F80090C4F8FB
:102D00000090FF2E19D185F800E016E0B9F1020F0E
:102D10001E6808D1B61A26EAE6761E60266066B9F5
:102D200085F800C009E01644FF2EA8BFFF26FF2E3D
:102D30001E60266001D185F8008007FA01F690F840
:102D4000079026EA090990F8446049EA060680F8E7
:102D5000446001310433043403297FF476AF90F8E2
:102D600045303BB990F8443023B10221BDE8F0472B
:102D7000FFF745BEBDE8F08701289FBF034B53F81E
:102D80002000C043C00F88BF002070478002002091
:102D900000207047002070470F234370002310B5B8
:102DA0008370012403714FF0FF33C470836011B945
:102DB000044B1B685968C16012B9024B1B689A68C2
:102DC000026110BDEC3700200023C3710371037052
:102DD0000372437143704372837183709B23C3708A
:102DE0007047022902D9032902D02EE0425410E094
:102DF000130601D5C2700CE0C2F34201012312F0A8
:102E0000010F827803FA01F314BF134322EA03038C
:102E10008370C278D10654BF0378002303719307EF
:102E200054BF43780023D107437156BF83780021F4
:102E300003F00F01130756BF90F90220002322F080
:102E40000F030B4383710120704700207047032953
:102E500025D8DFE801F002080E22C378DB064CBF5C
:102E6000C07900787047C37899074CBF007A4078E2
:102E70007047C378DA074CBF417A81781B0748BF97
:102E800090F9092001F00F0158BF90F9022022F0BB
:102E90000F0341EA0300C0B27047C07870470020BA
:102EA000704700002DE9F04F8389ADF5037D04469E
:102EB000023BF02B00F049820FDCE72B00F045824B
:102EC00004DCE12B00F03D82E42B03E0EA2B00F070
:102ED0003882ED2B00F035823BE244F2130293423C
:102EE00000F09E8007DCF32B00F02F8244F21002EA
:102EF000934210D02DE244F21C02934200F06C8108
:102F000044F21F02934200F0248244F216029342DC
:102F100040F01F8294E0037EC78843F00103857868
:102F200003760078FFF728FF10B940F20123BCE1D7
:102F3000E278A388A2F1F8010C222B444A43C84945
:102F40008A58934202DD40F60103AEE1E388FF2197
:102F5000A82003EB4522B2F5803FC4BFC3F5803300
:102F6000C3F34725BF4B93F80080BF4B93F8009005
:102F700010F08EFBAA200FF0D7FE6378A28813F022
:102F8000010F164602EB050A35D0564535D000250F
:102F9000781980B20FF0E6FC02AB58550135B5F553
:102FA000007FF5D107F50077324619462078BFB289
:102FB000FFF7F0FE20B1A3780136013BA370E4E7F0
:102FC00040F6012323E0324602A92078FFF7E0FE15
:102FD000D8B1A3780025013BA37002AB7819595DE5
:102FE000013580B20FF0ECFEB5F5007FF5D107F5A5
:102FF00000770136BFB25645E5D148460FF094FE42
:103000004146A82010F044FB9FE140F201434846AE
:1030100023800FF089FE4146A82010F039FB98E18B
:10302000037E43F0010303760078FFF7A5FE002836
:103030003FF47BAF0023A370637823F00103637038
:103040002078FFF799FE00283FF46FAF002202A915
:103050002078FFF79DFE10B940F6014325E19DF869
:1030600013309DF814A09DF81C7003EB0A2A9DF8FC
:103070001B30E5889DF81F9003EB07279DF81E3055
:10308000681C9DF8178005F1040B03EB09299DF8D6
:1030900016309DF81D1080B203EB08280FF090FE4B
:1030A000A81C9DF813101FFA8BFB80B20FF088FE4E
:1030B000E81C9DF8141080B20FF082FE00224FEA47
:1030C0006A11013941FA02F313F0010601D001320D
:1030D000F8E75846C9B200920FF072FE009A681DD8
:1030E00005F1060BD1B280B20FF06AFE9DF8151003
:1030F0001FFA8BFB013941FA06F2013612F0010F7B
:10310000F9D15846C9B20FF05BFEE81DF1B280B2AA
:103110000FF056FE05F108009DF8161080B20FF072
:103120004FFE05F109009DF8171080B20FF048FE20
:1031300005F10A009DF8181080B20FF041FE05F16C
:103140000B009DF8191080B20FF03AFE9DF819207F
:103150009DF8183005F10C00520109FB038380B281
:1031600092FBFAFA9A445FFA8AF10FF029FE05F110
:103170000D00CAF30721CAEB070A80B20FF020FE48
:103180009DF8157005F10E009AFBF7FA80B25FFA10
:103190008AF10FF015FE05F10F00CAF3072180B286
:1031A0000FF00EFE05F110009DF81E1080B20FF01A
:1031B00007FE9DF8183005F1110009FB038880B265
:1031C0005FFA88F10FF0FCFD05F11200C8F307214A
:1031D00080B20FF0F5FDB8E0037E43F00103037603
:1031E0000378013B012B3FF637AF0079FFF7C4FDB1
:1031F00000283FF49AAE1D4A012627781C4913681F
:10320000C7F10200164D0339C1F80330C0B253684C
:10321000C7F1FA07C1F807300C23FFB258432B1847
:103220002D581A7A281293F807904A735A79009207
:103230009DF8002008754A74002298791B798A74D9
:10324000CD744F7581F81690CA7508764A768B76DC
:10325000CA762079FFF79EFD60B9268079E000BF2D
:1032600088020020207B00206C7B0020B62B0020F1
:103270008B1F00604FF002084FF0FF3A40F2FD1242
:1032800000210DF10B008DF808708DF80AA006F1F1
:10329000010B8DF809A01AF0A7FF324602A9207988
:1032A000FFF778FD18B940F60123238051E04FF471
:1032B0000072002102A81AF097FF4B46012B5E46D0
:1032C0000CDD324602A9207906F1010B0193FFF7CC
:1032D00061FD0028E7D0019B013BEFE7B8F1010851
:1032E000CCD1009B41464FF4007202A84FEA131A5A
:1032F0001AF07AFFD0465644C8EB0607B8F1000F23
:1033000009D03A4602A92079FFF744FD0028CAD027
:1033100008F1FF38F0E7A5EB49054FF40072FF21F3
:1033200002A8CAEB05051AF05FFF013D2F447A1B86
:103330005DB102A92079FFF72DFD0028B3D0013D32
:10334000F5E7637843F0010302E0637823F00103BB
:1033500063700DF5037DBDE8F08F00BF2DE9F041EE
:10336000044600270E464FF4807204F5887504F574
:10337000927800211AF038FF0021304600F00CF955
:1033800045F8047F45454FF0000345F8147CF3D120
:10339000C4F8286184F82E3184F82C3184F82D315A
:1033A000BDE8F081F8B50229044690F82D614FF090
:1033B000000518BF80F82E117EB1052D0DD0F20743
:1033C00008D5D4F828010023202204EB4511284415
:1033D00000F0ECF801357610EEE794F82C6104F576
:1033E0008077002576B1052D0CD0F30706D5D4F8EB
:1033F00028017A693968284400F0B6F8013576105A
:103400000437EFE7002384F82D3184F82C31F8BD20
:10341000435C9342F0B500F08A8001F0E003A02BFA
:103420006ED101F0EF0390F8AF40C5182A74C25472
:1034300001F00F030A2B03D30E2B24D90F2B36D008
:103440005B0844FA03F3DC0771D501F00E01603923
:10345000C9B24318425CC1F342015B781B0203F41A
:1034600070639B181CBF324A92FBF3F301F14002D8
:1034700040F82230012303FA01F190F82C3119436E
:1034800080F82C1148E00A3B02F00F02DBB202EB9D
:10349000021200EB8301C1F81421012202FA03F3A6
:1034A000234090F82C41234380F82C3134E082EA09
:1034B000040390F82C1100F58074054603F01F03F7
:1034C00000F58A77DFF868E0194380F82C111BB308
:1034D000A74221D0D9070ED512F001010AD095F8E4
:1034E000A11095F8A060090201F47061891918BF54
:1034F0009EFBF1F121605B08043452080235E6E7D7
:103500009F29425413D80123490903FA01F190F885
:103510002D31194380F82D1190F82E313BB9B0F8B8
:103520002C3123B10221BDE8F040FFF73BBFF0BDD5
:10353000F5B40100DF2970B505460C46164611D8D2
:103540000B0602D52031C9B208E05F2906D9FFF782
:103550005FFF04F1200132462846C9B2BDE8704041
:10356000FFF756BF70BD0000002807DB044B21EABF
:10357000E17182F30802DB6803B11847704700BFAE
:103580001C690020034B81F308015B6803B11847F5
:10359000704700BF1C690020002803DB024B1B683A
:1035A00003B11847704700BF1C690020002810B401
:1035B00008DB002A06DD054C24691CB1A4465DF831
:1035C000044B60475DF8044B704700BF1C69002046
:1035D000C901094BC0F3460210F0010F03EA0103D1
:1035E00006490CBF0420002009680B449B5C43FA89
:1035F00000F000F00F00704780FF010040690020DC
:10360000084BC0F38602C04303EAC111064B4000D9
:103610001B6800F0060019448B5C43FA00F000F0D0
:103620000300704780FF0100406900200902094B38
:10363000C0F3470210F0010F03EA010306490CBF73
:103640000420002009680B449B5C43FA00F000F062
:103650000F00704700FF0100406900200B46114633
:10366000032815D8DFE800F00205080B1846FFF71D
:10367000AFBF1846FFF7C4BF1846FFF7D7BF090210
:10368000044A0A400449096851FA83F3985C704778
:103690000020704700FF01004069002007494A7878
:1036A0000B7AC2F3801203F002031A434B7A5B00D9
:1036B00003F00403134350F823007047727B00208B
:1036C0002DE9F8432E4EB5782B0657D42D4B2E4CB2
:1036D0001878D4F8248067680538DFF8BC90414634
:1036E0003A46C0B2FFF7BAFF89F82C00F0712748BC
:1036F000FFF7D4FF264A1368181A65F07F0310609D
:10370000E26AB3702346013AE2624C463AB9D9699B
:103710001D480139C1F30902D96142B115E01969A7
:103720001A6A414411425962F1D1BDE8F88325F08B
:1037300001050020174A65F07F051060B57071B96A
:10374000D8685A690244DA6009E042693A44426042
:103750000132ECD0036843628369C3620EE05B68A8
:1037600084F82A10C1F3012184F82230C3F3012325
:1037700084F82B1084F82330BDE8F883BDE8F88383
:10378000B37B00206F7B0020705F0020D0380020CA
:103790004837002044690020727B00202DE9F04F5B
:1037A000DFF8F0B185B07348DBF80830D946DBF8B4
:1037B0000C400193DBF81030DBF814800293DBF847
:1037C0001830DBF81C600393FFF768FF6A4BDBF8E7
:1037D00028501A68694BDBF82C701B789BF830A0D6
:1037E000053B032B00F29E80DFE803F0100B06027E
:1037F000111ADFF8A4C187E0C0EB020EDFF898B120
:1038000061E0C0EB020EDFF890B139E0C0EB020ED0
:10381000DFF884B1BEF1000F724640F38380E3010C
:103820005749C5F3460C013F01EA0301DBF80030BC
:103830000B4403F80CA003D0029B1D44EB0509D5F3
:10384000013EC6F30903002B6CD04444611C69D0CF
:10385000039F019DC0EB0E0EDCE7E3014849C5F371
:10386000860C013F01EA0301DBF800300B4403F84A
:103870000CA00AD0029B1D44AB0506D4C0EB0E0E73
:10388000BEF1000F7246E8DC4CE0013EC6F30903CE
:10389000002B47D04444611C44D0039F019DEDE7B9
:1038A00023023849C5F3470C013F01EA0301DBF865
:1038B00000300B4403F80CA00AD0029B1D44AB055A
:1038C00006D4C0EB0E0EBEF1000F7246E8DC29E014
:1038D000013EC6F309032BB34444611C22D0039F6D
:1038E000019DEEE72302DFF89CE0013F03EA0E0EA4
:1038F000DCF8003053FA85F303F80EA008D0029BE1
:103900001D44EB0504D4091A00290A46EADC09E043
:10391000013EC6F309032BB14444631C02D0039F4C
:10392000019DF0E7144B002A1A6017DD164A9378C0
:1039300023F0010393700022144B1A6006B944442B
:10394000134B83F82A60C6F3012683F82640C4F39C
:10395000012483F82B6083F8274007E0C9F80C4066
:10396000C9F81C60C9F82C70C9F8285005B0BDE82A
:10397000F08F00BF10380020483700206F7B0020F8
:1039800080FF010000FF0100B37B0020446900209C
:10399000727B0020705F002040690020A34BA44888
:1039A0001A682DE9F04F87B05D68DC6803929A6869
:1039B000D3F814A004921A69D3F81C8002929A6971
:1039C0005F6A05929E6AD3F82C90FFF767FE994ACA
:1039D0008346994B12781B68053A0193032A00F23B
:1039E000EF80DFE802F0110C0702019BDFF860C2F4
:1039F0001A1AD1E0019BDFF858C2191A98E0019B0E
:103A0000DFF84CC2191A5DE0019BDFF844C2191AB5
:103A10000029019140F3D480E801884ADCF80030A5
:103A2000B9F1010902EA0002C7F346001A4412F88C
:103A300000E04FEAC410814A02EA0002C6F34600E1
:103A40001A4402F800E006D0029B1F44F80502D495
:103A50001E44F20512D508F1FF38C8F30902002A06
:103A600000F0AE8055446B1C00F0AA805444601CEA
:103A700000F0A680DDF81490049E039FCBEB0101BB
:103A8000C6E7E8016D4ADCF80030B9F1010902EA45
:103A90000002C7F386001A4412F800E04FEAC4108F
:103AA000664A02EA0002C6F386001A4402F800E001
:103AB0000CD0029B1F44BA0508D41E44B00505D49F
:103AC000CBEB010100290191DBDC79E008F1FF3843
:103AD000C8F30902002A73D055446A1C70D05444BC
:103AE000631C6DD0DDF81490049E039FE8E7280264
:103AF000534ADCF80030B9F1010902EA0002C7F3C9
:103B000047001A4412F800E04FEA04204C4A02EA47
:103B10000002C6F347001A4402F800E00CD0029BF2
:103B20001F44B80508D41E44B20505D4CBEB0101EF
:103B300000290191DBDC43E008F1FF38C8F30902FA
:103B4000002A3DD055446B1C3AD05444601C37D0F9
:103B5000DDF81490049E039FE8E7DCF800104FEABC
:103B6000052E3748B9F101090EEA000051FA87FE27
:103B700051FA86F11EF800304FEA042E30480EEA62
:103B800000000B540CD0029B1F44F90508D41E44BE
:103B9000F30505D4CBEB0202002A0192DDDC0FE035
:103BA00008F1FF38C8F3090151B15544681C07D02A
:103BB0005444611C04D0DDF81490049E039FE9E78F
:103BC000019B1D4A002B136023DD1E4A937823F0CE
:103BD0000103937000221C4B1A60B8F1000F01D151
:103BE000554401E06B1C00D15444184B83F82A80E3
:103BF000C8F3012883F82250C5F3012583F8264035
:103C0000C4F3012483F82B8083F8235083F82740E2
:103C100008E0064B5D60DC60C3F81C80C3F82C90A4
:103C20005F629E6207B0BDE8F08F00BF705F00204A
:103C3000F03700206F7B00204837002080FF010014
:103C400000FF0100B37B002044690020727B00204C
:103C5000406900202DE9F74FDFF828A28248DAF802
:103C60000830D146DAF804500093DAF81030DAF868
:103C70000C400193FFF712FD7C4A7D4B1278DAF875
:103C80001480053ADAF81C70DAF828601B68032AF9
:103C900000F2B880DFE802F00E0A0602191ADFF817
:103CA000E8A19FE0191ADFF8E0A174E0191ADFF823
:103CB000D8A146E0191ADFF8D0A100290B4640F33D
:103CC000A180EA01DFF8C4E1C6F3460C02EA0E0E59
:103CD000DAF8002062444FEAC41C12F80EB0DFF894
:103CE000ACE10CEA0E0E02F80EB0019A1644F20591
:103CF0000CD5013FC7F30902002A00F08380454438
:103D00006A1C7FD04444621C7CD0009E091AD4E710
:103D1000EA01DFF878E1C6F3860C02EA0E0EDAF863
:103D2000002062444FEAC41C12F80EB0DFF85CE1D8
:103D30000CEA0E0E02F80EB0019A1644B20504D435
:103D4000091A00290B46E3DC5CE0013FC7F30902D6
:103D5000002A57D045446A1C54D04444621C51D0B8
:103D6000009EEDE72A02DFF80CE1C6F3470C02EAF9
:103D70000E0EDAF8002062444FEA042C12F80EB05E
:103D8000DFF8F0E00CEA0E0E02F80EB0019A1644CD
:103D9000B20504D4091A00290B46E3DC32E0013FE6
:103DA000C7F3090272B345446A1C2BD04444621C19
:103DB00028D0009EEEE72A02DFF8B8E002EA0E0EF5
:103DC000DAF8002052FA86FC2A4A1CF80EB04FEAB4
:103DD000042E0EEA02020CF802B0019A1644F20513
:103DE00004D4091A00290B46E5DC0BE0013FC7F3B8
:103DF00009023AB145446A1C04D04444621C01D013
:103E0000009EEEE71A4A002B136021DD1A4A9378D0
:103E100023F0010393700022184B1A600FB9454438
:103E200001E06B1C00D14444154B83F82A70C7F3A2
:103E3000012783F82250C5F3012583F82640C4F3F7
:103E4000012483F82B7083F8235083F8274007E080
:103E5000C9F80450C9F80C40C9F81C70C9F82860AA
:103E600003B0BDE8F08F00BF103900206F7B002049
:103E70004837002000FF0100B37B00204469002088
:103E8000727B0020705F00204069002080FF0100ED
:103E90002DE9F0413E4D95F90230002B76DB3D4B8C
:103EA0003D4C1B78A76A053BE6683C4ADBB2032B16
:103EB0001ED8DFE803F002081117F3013849194052
:103EC000C7F3460304E0F30135491940C7F38603FD
:103ED0000B44126813440CE0330232491940C7F313
:103EE0004703F5E731022F4B0B4053FA87F3F0E716
:103EF0001368DFF8C0802C4898F82C201A70FFF760
:103F0000CDFB2A4A24491368181A10604246A87843
:103F100060F07F03AB70E36A013BE3623BB9E369A6
:103F20001D49013BC3F30907E36147B115E00B6984
:103F30001F440B6A1F428F62F1D1BDE8F08120F06F
:103F400001001B4960F07F00A8700020086073B971
:103F5000E06861690144E16009E04F693E44CE6078
:103F60000136ECD08B688B628B69CB620EE082F8F5
:103F70002A30C3F3012382F82B30E36882F826301D
:103F8000C3F3012382F82730BDE8F081BDE8F0815A
:103F9000B37B00206F7B0020705F00204069002011
:103FA00080FF010000FF010010380020483700208A
:103FB00044690020727B002000B50C2B20D8DFE87C
:103FC00003F0080C1115191F1F1F070B1014180000
:103FD000B1B103781A4006E091B10A4301780A4072
:103FE0000DE069B102780A4309E049B102784A401C
:103FF00005E029B1037813400A4363EA0202027024
:104000005DF804FB10F0010F4FEAC111C0F3460048
:1040100030B40CBF0424002402FA04F4064A02EA75
:104020000102E1B21044054A156814BFF0220F22C4
:10403000284430BCFFF7C0BF80FF0100406900206A
:1040400070B4C4430325C0F38600640004F0060482
:10405000A54002FA04F4064AED4302EAC111054AFA
:1040600008441668E1B2EAB2304470BCFFF7A4BF5E
:1040700080FF01004069002010F0010F4FEA01218C
:10408000C0F3470030B40CBF0424002402FA04F447
:10409000064A02EA0102E1B21044054A156814BF5B
:1040A000F0220F22284430BCFFF786BF00FF01003A
:1040B0004069002030B41546064A02EA0121064A4A
:1040C00051FA80F0146829460022204430BCFFF7E2
:1040D00073BF00BF00FF01004069002010B50C460F
:1040E00011461A469DF80830032817D8DFE800F07B
:1040F00002070C112046BDE81040FFF783BF2046A1
:10410000BDE81040FFF79CBF2046BDE81040FFF718
:10411000B3BF2046BDE81040FFF7CCBF10BD000084
:10412000AC4BAD481A692DE9F04F87B09D68DE6849
:1041300001925A69D3F818900292DA695C6A039284
:104140009F6A93F8302093F8313004920593FFF77B
:10415000A5FAA24B8246D3F80080A14B93F82D30EC
:1041600013F0010F9F4B1B78A3F1050340F08F80E4
:10417000032B00F21181DFE803F00B080502C0EB0E
:10418000080B7FE0C0EB080B5DE0C0EB080B3BE0E9
:10419000C0EB080BBBF1000FD84640F3FD80059B38
:1041A00031462846049AFFF72DFF019B01371D4435
:1041B000039BE41A42BF029B4C44F6187B1EC4F3D7
:1041C0000904994500F0E880E805CAEB0B0B00F103
:1041D000E380DFE7059B31462846049AFFF730FF6E
:1041E000019B01371D44039BE41A42BF029B4C44D0
:1041F000F6187B1EC4F30904994500F0CD80A9058B
:10420000CAEB0B0B00F1C880BBF1000FD846E1DC14
:10421000C2E0059B31462846049AFFF72DFF019B1B
:1042200001371D44039BE41A42BF029B4C44F6181D
:104230007B1EC4F30904994500F0AE80AA05CAEBC1
:104240000B0B00F1A980BBF1000FD846E1DCA3E025
:10425000059B31462846049AFFF72CFF019B013746
:104260001D44039BE41A42BF029B4C44F6187B1E7C
:10427000C4F30904994500F08F80EB05CAEB0B0BE2
:1042800000F18A80BBF1000FD846E1DC84E0032B0B
:1042900000F28280DFE803F00B080502C0EB080B98
:1042A00076E0C0EB080B56E0C0EB080B36E0C0EB45
:1042B000080BBBF1000FD8466EDD059B3146284642
:1042C000049AFFF79FFE029B01371E44039BE41AEA
:1042D00042BF019B4C44ED187B1EC4F30904994571
:1042E0005AD0E805CAEB0B0B56D4E2E7059B3146E2
:1042F0002846049AFFF7A4FE029B01371E44039B45
:10430000E41A42BF019B4C44ED187B1EC4F3090420
:10431000994541D0A905CAEB0B0B3DD4BBF1000F69
:10432000D846E3DC38E0059B31462846049AFFF77F
:10433000A3FE029B01371E44039BE41A42BF019B6C
:104340004C44ED187B1EC4F30904994524D0AA05FA
:10435000CAEB0B0B20D4BBF1000FD846E3DC1BE00B
:10436000059B31462846049AFFF7A4FE029B0137BD
:104370001E44039BE41A42BF019B4C44ED187B1E74
:10438000C4F30904994507D0EB05CAEB0B0B03D422
:10439000BBF1000FD846E3DC104BB8F1000FC3F8B7
:1043A00000800FDD104A937823F001039370002200
:1043B0000E4B1A600A4B83F82660C6F3012683F879
:1043C000276004E0034B9D60DE605C629F6207B083
:1043D000BDE8F08F705F0020903800204837002043
:1043E000727B00206F7B0020B37B0020446900209B
:1043F000664B67489A682DE9F04F87B0DC68D3F8C0
:1044000014A001921A69DE6902929A699D6A039268
:10441000DF6A93F8302093F8313004920593FFF768
:104420003DF95C4B8146D3F800805B4B1B78053B24
:10443000032B00F28480DFE803F00B080502C0EBD9
:10444000080B6DE0C0EB080B4DE0C0EB080B2CE057
:10445000C0EB080BBBF1000FD84670DD059B214671
:10446000049A2846FFF7CEFD013F03D0029B1D446E
:10447000E80509D5013EC6F30903002B5FD054447B
:10448000611C5CD0039F019DC9EB0B0BE2E7059B10
:104490002146049A2846FFF7D3FD013F0AD0029B2C
:1044A0001D44AA0506D4C9EB0B0BBBF1000FD8467F
:1044B000EDDC44E0013EC6F30903002B3FD0544439
:1044C000631C3CD0039F019DEDE7059B2146049AA8
:1044D0002846FFF7D1FD013F0AD0029B1D44A805E5
:1044E00006D4C9EB0B0BBBF1000FD846EDDC26E080
:1044F000013EC6F3090313B35444611C1FD0039F4C
:10450000019DEEE7059B2146049A2846FFF7D2FD60
:10451000013F0AD0029B1D44EA0506D4C9EB0B0BF0
:10452000BBF1000FD846EDDC09E0013EC6F30903FC
:104530002BB15444631C02D0039F019DEEE7154B41
:10454000B8F1000FC3F8008017DD144A937823F008
:10455000010393700022124B1A6006B95444114BA8
:1045600083F82640C4F3012483F82A60C6F30126A9
:1045700083F8274083F82B6004E0044BDC60DE61A5
:10458000DF629D6207B0BDE8F08F00BF705F002062
:10459000D0380020483700206F7B0020B37B0020FC
:1045A00044690020727B00202DE9F743324E96F9D2
:1045B0000230002B5CDB314B314D1878314B053824
:1045C000314C95F82C20C0B2D4F82890D4F80C8047
:1045D0001B5C4946134094F831200092424685F80E
:1045E0002C30F371FFF77AFD2848FFF757F8284A77
:1045F000B7781368181A67F07F031060E26AB37027
:104600002346013AE2623AB9D9691F480139C1F338
:104610000902D9613AB114E02269216A4A440A4286
:10462000A262F1D124E027F001070020194A67F0C7
:104630007F071060B77071B9D8685A690244DA60B0
:1046400009E042694244C2600132ECD0836883626F
:104650008369C3620CE0DB6885F82A10C1F301218D
:1046600085F82630C3F3012385F82B1085F8273011
:1046700003B0BDE8F08300BFB37B00206F7B002058
:10468000727B002032270020705F0020D03800208D
:1046900048370020446900202DE9F74F4548FEF7D0
:1046A000FDFF454A454E804612784549053AD6F801
:1046B0001090D6F82CA096F830B00D68019196E8CD
:1046C0009000032A5FD8DFE802F002152A572A1A61
:1046D000151E58DD39462046FEF77AFFC0EB0B0267
:1046E0005042504182453CD14C44C8EB0502E305A1
:1046F000EED53BE02A1A151E45DD39462046FEF769
:104700007FFFC0EB0B0EDEF1000040EB0E00824598
:1047100027D14C44C8EB0502A105ECD526E02A1AA6
:10472000151E30DD39462046FEF780FFC0EB0B0238
:1047300050425041824514D14C44C8EB0502A305B8
:10474000EED513E04C44E30510D4C8EB0505002D6D
:1047500019DDE1B2515CCBEB0100414241418A4598
:10476000F0D0184A937843F0100303E0154A937889
:1047700023F01003937006E0134A3F021168134AB6
:104780003A400A44E1E7019B002D1D600DDD0D4B11
:1047900000219A781C72241222F0010264F00104B4
:1047A0009A700B4A5C72116000E0346003B0BDE89F
:1047B000F08F00BFF03800206F7B0020705F00207A
:1047C00048370020B37B00204069002000FF010033
:1047D00044690020974B98481A682DE9F04F89B03A
:1047E0005D68DC6804929A68D3F814A005921A698F
:1047F000D3F81C8002925F6A9A699E6AD3F82C9063
:1048000093F8313006920793FEF748FF8B4B0390E5
:104810001B6801938A4B1B78053B032B00F2D48065
:10482000DFE803F0110C0702019B039AC2EB030BB4
:10483000B4E0019B039AC2EB030B7EE0019B039A59
:10484000C2EB030B4BE0019B039AC2EB030BBBF1E2
:10485000000FCDF804B040F3B78029463846FEF784
:10486000B7FE079B024621463046FFF7CBFBB9F166
:10487000010906D0029B1F44FA0502D41E44F30529
:1048800012D508F1FF38C8F30903002B00F09C8013
:104890005544681C00F098805444611C00F09480DA
:1048A000DDF81890059E049F039BC3EB0B0BCEE72E
:1048B00029463846FEF7A4FE079B024621463046AD
:1048C000FFF7BEFBB9F101090FD0029B1F44BA05E7
:1048D0000BD41E44B30508D4039BC3EB0B0BBBF1F5
:1048E000000FCDF804B0E3DC6EE008F1FF38C8F348
:1048F0000903002B68D05544681C65D05444611CE2
:1049000062D0DDF81890059E049FE5E729463846F9
:10491000FEF78CFE079B024621463046FFF7ACFBB4
:10492000B9F101090FD0029B1F44BA050BD41E44F4
:10493000B30508D4039BC3EB0B0BBBF1000FCDF801
:1049400004B0E3DC40E008F1FF38C8F30903002BB2
:104950003AD05544681C37D05444611C34D0DDF83B
:104960001890059E049FE5E72B02364A30461A4010
:10497000354B1B6853FA87F1079B8A5C2146FFF78A
:1049800099FBB9F101090FD0029B1F44FA050BD422
:104990001E44F00508D4039BC3EB0B0BBBF1000FC7
:1049A000CDF804B0E0DC0FE008F1FF38C8F30903EC
:1049B00053B15544691C07D05444621C04D0DDF83F
:1049C0001890059E049FE6E7019A1C4B002A1A6086
:1049D00023DD1E4A937823F00103937000221C4BC1
:1049E0001A60B8F1000F01D1554401E06B1C00D1F1
:1049F0005444184B83F82A80C8F3012883F82250C6
:104A0000C5F3012583F82640C4F3012483F82B80E5
:104A100083F8235083F8274008E0064B5D60DC6094
:104A2000C3F81C80C3F82C905F629E6209B0BDE899
:104A3000F08F00BF705F0020B038002048370020A2
:104A40006F7B002000FF010040690020B37B002045
:104A500044690020727B0020084B9A78D87102F0DC
:104A60007F029A70064B074A1B6882F82C0023B11C
:104A7000054A1268002A00DD18477047B37B002002
:104A800044690020727B002048370020084A08B59E
:104A9000937803F07F039370064B1B6823B1064A9B
:104AA0001268002A00DD9847044B93F82C0008BDDB
:104AB000B37B00204469002048370020727B00202F
:104AC0008D4BF7B51C78042C40F2118101098B4BFA
:104AD000053C01F00C0683F832100C2E0AD0F1B11F
:104AE000874D884A95F82C70125D3A4085F82C2045
:104AF000854DEA710F2900F2FA80DFE811F010000D
:104B0000F800F800F8001900350053005500570070
:104B100059005B005D005F006100630065007A4A38
:104B2000937823F0010393700022784B1A60E0E041
:104B3000754E0022724DB37895F8230023F00103DF
:104B400095F82110B370714B1A6095F8203095F8E4
:104B5000222003EB012102EB0022E0B2FEF77EFDF2
:104B600085F82C00F071C4E0674A00F00F00644D36
:104B7000937895F8277023F0010395F8256095F850
:104B8000241093700022614B01EB06211A6095F806
:104B9000262095F82C3002EB07220090E0B2FFF7B8
:104BA0009DFAA6E05A4D10E05A4D0EE05A4D0CE029
:104BB0005A4D0AE05A4D08E05A4D06E05A4D04E0BD
:104BC0005A4D02E05A4D00E05A4D504A00F00F0095
:104BD00015604B4A83F8310092F8217092F820500A
:104BE00005EB072592F82370C5F308051D6092F8C0
:104BF000225005EB072592F82570C5F309055D6085
:104C000092F8245005EB072592F82770C5F30805A4
:104C10009D6092F8265005EB072592F82B70C5F39E
:104C20000905DD6092F82A5005EB0725C5F3090553
:104C3000DD6192F82D5015F0080F05F004000CBF4F
:104C400001274FF0FF370C2E5F613B4F57F8247060
:104C50001F6292F82C7083F8307015D1374D18B15F
:104C600055F82400404201E055F82400186192F8FC
:104C7000296092F8280055F8244000EB0620C0F384
:104C8000090090FBF4F00DE0002892F829400CBFD9
:104C900001204FF0FF30186192F8280000EB04204B
:104CA000C0F309000729986106D19A69013A5210A8
:104CB0005A6200229A620AE01868062958629868C7
:104CC000986204D192F82D20C2F3400200E09A6964
:104CD000DA620D4A937843F0010393700B4B1B6823
:104CE0003BB1174A1268002A03DD984701E0002013
:104CF00000E0012003B0F0BD6F7B0020705F00205A
:104D0000727B002032270020B37B00204469002002
:104D100009200000911A0000611D000045210000DB
:104D200031100000191F00000D1100000D130000CC
:104D3000C515000001180000F8020020E80200205C
:104D4000483700200A4A0B491368002B08DC03F59A
:104D50004353143313600A6842B1002B06DD104739
:104D600043F2D40313600B6803B11847704700BFC8
:104D700048370020446900202DE9F84F04460025FB
:104D80004FF00F0B0E4604F13C0A04F1600804F1E9
:104D90002F07A9464022002119F026FA7019013583
:104DA0000021FEF7F9FB092D4AF8049F4FF000039C
:104DB00048F8049F07F801BFF0D1C4F8886084F870
:104DC0009830C4F88C30C4F89030C4F8943084F82B
:104DD0009930BDE8F88F01F03F0180F899107047D5
:104DE000F8B502290446D0F890604FF00005454F11
:104DF00018BF80F8981096B1092D10D0F2070BD586
:104E00006319D4F8880093F8303028441B09F95C02
:104E100041F48071FEF7C0FB01357610EBE7D4F862
:104E20008C6004F14007002576B1092D0CD0F30702
:104E300006D5D4F888007A6A39682844FEF794FBCE
:104E4000013576100437EFE7D4F89460002E51D086
:104E5000F707A57B0BD515F001014FF495701EBF28
:104E600094F83710090901EB0111FEF78BFBB0072D
:104E70000ED505F0020303F0FF012BB194F83810B2
:104E800001F00F0101EB011140F23110FEF77AFB46
:104E900071070DD505F0040303F0FF0123B194F869
:104EA0003810090901EB011140F22F10FEF76AFBDF
:104EB00032070ED505F0080303F0FF012BB194F87B
:104EC000371001F00F0101EB01114FF49470FEF760
:104ED00059FBF3060ED505F0100505F0FF012DB1C5
:104EE00094F8361001F00F0101EB01114FF49270AC
:104EF000FEF748FB0023C4F89430C4F89030C4F89F
:104F00008C30F8BD88210060F0B401F03F0401F05E
:104F10000F012309022B49D0032B71D0012B24D080
:104F20000E2940F0A480035D9A4200F0B1809706FC
:104F3000D0F8945058BF02F0E00282EA030122EA5E
:104F4000030301F01F019E0641EA0501C0F8941019
:104F500040F18D8000230366C3658365D0F88C30F3
:104F600043F4E073C0F88C3081E0082900F29080AF
:104F7000035D934200F08C80837B9D0601D505295B
:104F800075D803191E7CF30671D5330240F63545FA
:104F900001F1100703F4807313445D43C6F3420329
:104FA00005FA03F3DB1340F8273020E008296FD817
:104FB000837B9F0601D5052959D802F0100301F122
:104FC000100603F0FF0513B940F826500FE0130256
:104FD000051903F4807315F8105C2B4440F6354531
:104FE0006B43C2F34205AB40DB1340F8263001238C
:104FF00003FA01F1D0F88C301943C0F88C1036E078
:10500000082945D8035D9A4242D0534013F0F00F6F
:1050100006D00125D0F890608D403543C0F89050FF
:105020001E070ED0D34300EB810503F00F0303EB03
:1050300003136B660123D0F88C508B402B43C0F8D0
:105040008C30837B9D0612D5072906D0082907D00E
:1050500006290CD103F0100304E003F0090301E07A
:1050600003F00603D0F894100B43C0F894300255B7
:1050700090F8983063B9D0F88C302BB9D0F89030D4
:1050800013B9D0F894301BB10221F0BCFFF7A8BED1
:10509000F0BC70470A4690F89910FFF735BF000042
:1050A00010B504468089431CA3810DF05BFC034BC3
:1050B0001A5C236A9B1A236202E000BF322300209D
:1050C000FF2801F2C582DFE810F000010B01160194
:1050D00021012C013701420153015E016A01760171
:1050E00082018E019A01A601B801C401DC01F4011C
:1050F0000C0224023C0254026F0287029802A902A9
:10510000BA02CB02DC02ED02030314031E032803E0
:1051100032033C03460350035F03690376038303B2
:1051200090039D03AA03B703CA03D703E503F10362
:10513000FD0309041504210432043E04480452040A
:105140005C04660470047A048A049404A104AE0426
:10515000BB04C804D504E204F104FE040B051805E1
:10516000250532053F054F055E056B05780585056C
:1051700092059F05AC05B905C805D505E205EF0503
:10518000FC0509061606230632063F064C0659069C
:105190006606730680068D069C06A906B606C50639
:1051A000D206DF06EC06F9060807150722072F07C7
:1051B0003C0749075607630772077F078C07990763
:1051C000A607B307C007CD07DC07E907EE07F3071B
:1051D000F807FD0702080708110816081B08200831
:1051E00025082A082F083708410846084B085008A8
:1051F00055085A085F0864086E08730878087D0827
:10520000820887088C0891089B08A008A508AA08AE
:10521000AF08B408B908BE08C808CD08D208D70836
:10522000DC08E108E608EB08F508FA08FF080409BD
:1052300009090E0913091809220927092C0931093E
:1052400036093B09400945094F09540959095E09C6
:10525000630968096D0972097D09820987098C094A
:10526000910996099B09A009AB09B009B509BA09CA
:10527000BF09C409C909CE09D909DE09E309E8094A
:10528000ED09F209F709FC09070A0C0A110A160AC6
:105290001B0A200A250A2A0A350A3A0A3F0A440A42
:1052A000490A4E0A530A580A630A680A6D0A720AC2
:1052B000770A7C0A810A860A910A960A9B0AA00A42
:1052C000A50AAA0AAF0AB40ABF0AE378B549DA09FF
:1052D00042EA4303DBB2E370CB5C1343237010BD9F
:1052E000A378B049DA0942EA4303DBB2A370CB5C8E
:1052F0001343237010BD6379AA49DA0942EA4303D4
:10530000DBB26371CB5C1343237010BD2379A549D5
:10531000DA0942EA4303DBB22371CB5C1343237007
:1053200010BDE3799F49DA0942EA4303DBB2E37136
:10533000CB5C1343237010BDA3799A49DA0942EA82
:105340004303DBB2A371CB5C1343237010BDE08831
:105350000DF008FBC0F3C712924B42EA4001E0880F
:10536000C9B25B5C13432370BDE810400DF028BD4B
:1053700063788C49DA0942EA4303DBB26370CB5CA1
:105380001343237010BDE17801F00102D30143EA19
:1053900051038449E370CB5C1343237010BDA178A3
:1053A00001F00102D30143EA51037E49A370CB5CB3
:1053B0001343237010BD617901F00102D30143EA68
:1053C000510378496371CB5C1343237010BD21797D
:1053D00001F00102D30143EA510372492371CB5C0E
:1053E0001343237010BDE17901F00102D30143EAB8
:1053F00051036C49E371CB5C1343237010BDA17959
:1054000001F00102D30143EA51036649A371CB5C69
:105410001343237010BDE0880DF0A4FA00F00102E0
:10542000C0F347015F4BE08841EAC2115B5C134364
:105430002370BDE810400DF0C3BC617801F001029B
:10544000D30143EA510357496370CB5C1343237084
:1054500010BDE278237812F0800F52494FEA4202E1
:1054600003F0010307D01A43D2B28B5CE27043F021
:105470000103237010BD1343DBB2E370CB5C2370D8
:1054800010BDA278237812F0800F46494FEA4202FD
:1054900003F0010307D01A43D2B28B5CA27043F031
:1054A0000103237010BD1343DBB2A370CB5C2370E8
:1054B00010BD6279237812F0800F3A494FEA420218
:1054C00003F0010307D01A43D2B28B5C627143F040
:1054D0000103237010BD1343DBB26371CB5C2370F7
:1054E00010BD2279237812F0800F2E494FEA420234
:1054F00003F0010307D01A43D2B28B5C227143F050
:105500000103237010BD1343DBB22371CB5C237006
:1055100010BDE279237812F0800F22494FEA42024F
:1055200003F0010307D01A43D2B28B5CE27143F05F
:105530000103237010BD1343DBB2E371CB5C237016
:1055400010BDA279237812F0800F16494FEA42026B
:1055500003F0010307D01A43D2B28B5CA27143F06F
:105560000103237010BD1343DBB2A371CB5C237026
:1055700010BDE0880DF0F6F9217810F0800F4FEAA9
:10558000400001F00101074B41EA0001E088C9B287
:105590005B5C18BF43F001032370BDE810400DF0C1
:1055A0000FBC00BF362700206278237812F0800FEE
:1055B000B7494FEA420203F0010307D01A43D2B2BF
:1055C0008B5C627043F00103237010BD1343DBB2A8
:1055D0006370CB5C237010BDE378217813F0010F6A
:1055E0004FEA5303AA4A43EAC113DBB2E370D35C28
:1055F00018BF43F00103237010BDA378217813F086
:10560000010F4FEA5303A24A43EAC113DBB2A3706E
:10561000D35C18BF43F00103237010BD6379217878
:1056200013F0010F4FEA5303994A43EAC113DBB267
:105630006371D35C18BF43F00103237010BD23795D
:10564000217813F0010F4FEA5303914A43EAC11343
:10565000DBB22371D35C18BF43F00103237010BD8C
:10566000E379217813F0010F4FEA5303884A43EAA4
:10567000C113DBB2E371D35C18BF43F001032370A5
:1056800010BDA379217813F0010F4FEA5303804A2C
:1056900043EAC113DBB2A371D35C18BF43F001032B
:1056A000237010BDE0880DF05DF9217810F0010F36
:1056B0004FEA5000764B40EAC111E088C9B25B5C0A
:1056C00018BF43F001032370BDE810400DF078BB14
:1056D0006378217813F0010F4FEA53036C4A43EAD1
:1056E000C113DBB26370D35C18BF43F001032370B6
:1056F00010BDE27866495300DBB2E370CB5C43EA4D
:10570000D213237010BDA27861495300DBB2A3709D
:10571000CB5C43EAD213237010BD62795C4953001D
:10572000DBB26371CB5C43EAD213237010BD2279E4
:1057300057495300DBB22371CB5C43EAD213237089
:1057400010BDE27952495300DBB2E371CB5C43EA0E
:10575000D213237010BDA2794D495300DBB2A3715F
:10576000CB5C43EAD213237010BDE0880DF0FAF849
:10577000474B4100C9B25B5C43EAD0102070E0881F
:10578000BDE810400DF01CBB627841495300DBB20C
:105790006370CB5C43EAD213237010BDE3783C49BD
:1057A00023F07F0242EA530203F00103E2708A5CB5
:1057B0001343237010BDA378354923F07F0242EADA
:1057C000530203F00103A2708A5C1343237010BDDF
:1057D00063792F4923F07F0242EA530203F0010369
:1057E00062718A5C1343237010BD2379284923F02A
:1057F0007F0242EA530203F0010322718A5C1343E1
:10580000237010BDE379224923F07F0242EA53025C
:1058100003F00103E2718A5C1343237010BDA37986
:105820001B4923F07F0242EA530203F00103A271F5
:105830008A5C1343237010BDE0880DF093F820F0CC
:105840007F01134B41EA500100F00100C9B25B5CDB
:1058500018432070E088BDE810400DF0B1BA6378BD
:105860000B4923F07F0242EA530203F00103627006
:105870008A5C1343237010BDE2780549530043F05E
:105880000103DBB2E370CB5C43EAD213237010BD9B
:1058900036270020A278B349530043F00103DBB25E
:1058A000A370CB5C43EAD213237010BD6279AD497B
:1058B000530043F00103DBB26371CB5C43EAD213C4
:1058C000237010BD2279A749530043F00103DBB2D6
:1058D0002371CB5C43EAD213237010BDE279A14956
:1058E000530043F00103DBB2E371CB5C43EAD21314
:1058F000237010BDA2799B49530043F00103DBB232
:10590000A371CB5C43EAD213237010BDE0880DF085
:1059100029F8944B410041F00101C9B25B5C43EAB4
:10592000D0102070E088BDE810400DF049BA6278D0
:105930008C49530043F00103DBB26370CB5C43EA54
:10594000D213237010BDE37886495A0803F001038F
:10595000E2708A5C1343237010BDA37881495A0812
:1059600003F00103A2708A5C1343237010BD6379B6
:105970007C495A0803F0010362718A5C1343237067
:1059800010BD237977495A0803F0010322718A5C1C
:105990001343237010BDE37972495A0803F00103E1
:1059A000E2718A5C1343237010BDA3796D495A08D4
:1059B00003F00103A2718A5C1343237010BDE088D9
:1059C0000CF0D0FF674BC0F3470100F001005B5CB7
:1059D00018432070E088BDE810400DF0F1B96378FD
:1059E00060495A0803F0010362708A5C1343237014
:1059F00010BD2378E27803F001035A4902F0010256
:105A000043F010038A5C1343237010BD2378A278FF
:105A100003F00103534902F0010243F010038A5CD2
:105A20001343237010BD2378627903F001034D49BD
:105A300002F0010243F010038A5C1343237010BD8F
:105A40002378227903F00103464902F0010243F072
:105A500010038A5C1343237010BD2378E27903F0AE
:105A60000103404902F0010243F010038A5C134332
:105A7000237010BD2378A27903F00103394902F0A5
:105A8000010243F010038A5C1343237010BDE088C9
:105A90000CF068FF237800F00100324A03F00103A4
:105AA000125C43F010031343237010BD2378627817
:105AB00003F001032B4902F0010243F010038A5C5A
:105AC0001343237010BD2378E27803F001032549C6
:105AD00002F0020243F010038A5C1343237010BDEE
:105AE0002378A27803F001031E4902F0020243F07A
:105AF00010038A5C1343237010BD2378627903F08E
:105B00000103184902F0020243F010038A5C1343B8
:105B1000237010BD2378227903F00103114902F0AC
:105B2000020243F010038A5C1343237010BD2378F4
:105B3000E27903F001030B4902F0020243F0100383
:105B40008A5C1343237010BD2378A27903F001030C
:105B5000044902F0020243F010038A5C13432370ED
:105B600010BD00BF36270020E0880CF0FBFE237834
:105B700000F00200B64A03F00103125C43F0100388
:105B80001343237010BD2378627803F00103B049FA
:105B900002F0020243F010038A5C1343237010BD2D
:105BA0002378E27803F00103A94902F0040243F0EC
:105BB00010038A5C1343237010BD2378A27803F08E
:105BC0000103A34902F0040243F010038A5C13436B
:105BD000237010BD2378627903F001039C4902F021
:105BE000040243F010038A5C1343237010BD237832
:105BF000227903F00103964902F0040243F01003F6
:105C00008A5C1343237010BD2378E27903F001030B
:105C10008F4902F0040243F010038A5C134323709F
:105C200010BD2378A27903F00103894902F0040230
:105C300043F010038A5C1343237010BDE0880CF01E
:105C400091FE237800F00400814A03F00103125C06
:105C500043F010031343237010BD2378627803F0E0
:105C600001037B4902F0040243F010038A5C1343F2
:105C7000237010BD2378E27803F00103744902F029
:105C8000080243F010038A5C1343237010BD23788D
:105C9000A27803F001036E4902F0080243F01003FA
:105CA0008A5C1343237010BD2378627903F00103EB
:105CB000674902F0080243F010038A5C1343237023
:105CC00010BD2378227903F00103614902F0080234
:105CD00043F010038A5C1343237010BD2378E279EC
:105CE00003F001035A4902F0080243F010038A5CF2
:105CF0001343237010BD2378A27903F001035449A4
:105D000002F0080243F010038A5C1343237010BDB5
:105D1000E0880CF027FE237800F008004C4A03F0DE
:105D20000103125C43F010031343237010BD23786A
:105D3000627803F00103464902F0080243F01003C1
:105D40008A5C1343237010BD2378E27803F00103CB
:105D50003F4902F0100243F010038A5C13432370A2
:105D600010BD2378A27803F00103394902F0100234
:105D700043F010038A5C1343237010BD23786279CB
:105D800003F00103324902F0100243F010038A5C71
:105D90001343237010BD2378227903F001032C49AB
:105DA00002F0100243F010038A5C1343237010BD0D
:105DB0002378E27903F00103254902F0100243F051
:105DC00010038A5C1343237010BD2378A27903F07B
:105DD00001031F4902F0100243F010038A5C1343D1
:105DE000237010BDE0880CF0BDFD237800F010009A
:105DF000174A03F00103125C43F0100313432370AE
:105E000010BD2378627803F00103114902F01002FB
:105E100043F010038A5C1343237010BD2378E278AB
:105E200003F001030A4902F0200243F010038A5CE8
:105E30001343237010BD2378A27803F001030449B3
:105E400002F0200243F010038A5C1343237010BD5C
:105E5000362700202378627903F00103B54902F068
:105E6000200243F010038A5C1343237010BD237893
:105E7000227903F00103AF4902F0200243F010033E
:105E80008A5C1343237010BD2378E27903F0010389
:105E9000A84902F0200243F010038A5C13432370E8
:105EA00010BD2378A27903F00103A24902F0200279
:105EB00043F010038A5C1343237010BDE0880CF09C
:105EC00051FD237800F020009A4A03F00103125C90
:105ED00043F010031343237010BD2378627803F05E
:105EE0000103944902F0200243F010038A5C13433B
:105EF000237010BD2378E27803F001038D4902F08E
:105F0000400243F010038A5C1343237010BD2378D2
:105F1000A27803F00103874902F0400243F0100326
:105F20008A5C1343237010BD2378627903F0010368
:105F3000804902F0400243F010038A5C134323704F
:105F400010BD2378227903F001037A4902F0400260
:105F500043F010038A5C1343237010BD2378E27969
:105F600003F00103734902F0400243F010038A5C1E
:105F70001343237010BD2378A27903F001036D4908
:105F800002F0400243F010038A5C1343237010BDFB
:105F9000E0880CF0E7FC237800F04000654A03F04D
:105FA0000103125C43F010031343237010BD2378E8
:105FB000627803F001035F4902F0400243F01003EE
:105FC0008A5C1343237010BD2378E27803F0010349
:105FD000584922F07F0243F010038A5C1343237078
:105FE00010BD2378A27803F00103524922F07F020A
:105FF00043F010038A5C1343237010BD2378627949
:1060000003F001034B4922F07F0243F010038A5C46
:106010001343237010BD2378227903F0010345490F
:1060200022F07F0243F010038A5C1343237010BDFB
:106030002378E27903F001033E4922F07F0243F026
:1060400010038A5C1343237010BD2378A27903F0F8
:106050000103384922F07F0243F010038A5C1343A6
:10606000237010BDE0880CF07DFC237800F08000E8
:10607000304A03F00103825C43F0100313432370A2
:1060800010BD2378627803F001032A4922F07F02D1
:1060900043F010038A5C1343237010BDE37823F0B0
:1060A0000103E37010BDA37823F00103A37010BDBA
:1060B000637923F00103637110BD237923F0010399
:1060C000237110BDE37923F00103E37110BDA379BF
:1060D00023F00103A37110BDE0880CF043FC00F035
:1060E000FE01E088BDE810400CF06ABE637823F042
:1060F0000103637010BDE37823F00203E37010BD69
:10610000A37823F00203A37010BD637923F0020388
:10611000637110BD237923F00203237110BDE3796D
:1061200023F00203E37110BDA37923F00203A371EE
:1061300010BD00BF36270020E0880CF013FC00F0F3
:10614000FD01E088BDE810400CF03ABE637823F012
:106150000203637010BDE37823F00403E37010BD05
:10616000A37823F00403A37010BD637923F0040324
:10617000637110BD237923F00403237110BDE3790B
:1061800023F00403E37110BDA37923F00403A3718A
:1061900010BDE0880CF0E6FB00F0FB01E088BDE8F4
:1061A00010400CF00DBE637823F00403637010BD43
:1061B000E37823F00803E37010BDA37823F008030D
:1061C000A37010BD637923F00803637110BD2379B8
:1061D00023F00803237110BDE37923F00803E37172
:1061E00010BDA37923F00803A37110BDE0880CF063
:1061F000B9FB00F0F701E088BDE810400CF0E0BD0D
:10620000637823F00803637010BDE37823F0100374
:10621000E37010BDA37823F01003A37010BD637961
:1062200023F01003637110BD237923F01003237151
:1062300010BDE37923F01003E37110BDA37923F0BF
:106240001003A37110BDE0880CF08CFB00F0EF018F
:10625000E088BDE810400CF0B3BD637823F0100374
:10626000637010BDE37823F02003E37010BDA378C2
:1062700023F02003A37010BD637923F02003637122
:1062800010BD237923F02003237110BDE37923F09F
:106290002003E37110BDA37923F02003A37110BD87
:1062A000E0880CF05FFB00F0DF01E088BDE8104003
:1062B0000CF086BD637823F02003637010BDE37893
:1062C00023F04003E37010BDA37823F04003A370D4
:1062D00010BD637923F04003637110BD237923F06F
:1062E0004003237110BDE37923F04003E37110BD37
:1062F000A37923F04003A37110BDE0880CF032FBBA
:1063000000F0BF01E088BDE810400CF059BD637893
:1063100023F04003637010BDE37803F07F03E37064
:1063200010BDA37803F07F03A37010BD637903F061
:106330007F03637110BD237903F07F03237110BDC8
:10634000E37903F07F03E37110BDA37903F07F03CA
:10635000A37110BDE0880CF005FB00F07F01E08820
:10636000BDE810400CF02CBD637803F07F03637030
:1063700010BDE37843F00103E37010BDA37843F050
:106380000103A37010BD637943F00103637110BD75
:10639000237943F00103237110BDE37943F0010336
:1063A000E37110BDA37943F00103A37110BDE08830
:1063B0000CF0D8FA40F00101E088C9B2BDE8104005
:1063C0000CF0FEBC637843F00103637010BDE3780A
:1063D00043F00203E37010BDA37843F00203A370FF
:1063E00010BD637943F00203637110BD237943F05C
:1063F0000203237110BDE37943F00203E37110BD82
:10640000A37943F00203A37110BDE0880CF0AAFA4F
:1064100040F00201E088C9B2BDE810400CF0D0BCE9
:10642000637843F00203637010BDE37843F0040324
:10643000E37010BDA37843F00403A37010BD63792B
:1064400043F00403637110BD237943F00403237107
:1064500010BDE37943F00403E37110BDA37943F069
:106460000403A37110BDE0880CF07CFA40F0040135
:10647000E088C9B2BDE810400CF0A2BC637843F0DC
:106480000403637010BDE37843F00803E37010BDAC
:10649000A37843F00803A37010BD637943F00803A9
:1064A000637110BD237943F00803237110BDE379B4
:1064B00043F00803E37110BDA37943F00803A3710F
:1064C00010BDE0880CF04EFA40F00801E088C9B237
:1064D000BDE810400CF074BC637843F008036370AF
:1064E00010BDE37843F01003E37010BDA37843F0D0
:1064F0001003A37010BD637943F01003637110BDE6
:10650000237943F01003237110BDE37943F01003A6
:10651000E37110BDA37943F01003A37110BDE088AF
:106520000CF020FA40F01001E088C9B2BDE810403C
:106530000CF046BC637843F01003637010BDE37841
:1065400043F02003E37010BDA37843F02003A37051
:1065500010BD637943F02003637110BD237943F0CC
:106560002003237110BDE37943F02003E37110BDD4
:10657000A37943F02003A37110BDE0880CF0F2F979
:1065800040F02001E088C9B2BDE810400CF018BC12
:10659000637843F02003637010BDE37843F0400359
:1065A000E37010BDA37843F04003A37010BD63797E
:1065B00043F04003637110BD237943F0400323711E
:1065C00010BDE37943F04003E37110BDA37943F0BC
:1065D0004003A37110BDE0880CF0C4F940F0400105
:1065E000E088C9B2BDE810400CF0EABB637843F024
:1065F0004003637010BDE37863F07F03E37010BD68
:10660000A37863F07F03A37010BD637963F07F0309
:10661000637110BD237963F07F03237110BDE379AB
:1066200063F07F03E37110BDA37963F07F03A3716F
:1066300010BDE0880CF096F960F07F01E088C9B2E7
:10664000BDE810400CF0BCBB637863F07F0363705F
:1066500010BD00BF70B504468089431CA3810CF0B7
:1066600081F9034B226A1B5C0138D31A236201E0D3
:1066700032250020FE2802F26982DFE810F0780956
:10668000E90E230A230B330A500F090C040EBC0930
:10669000B209130A3D0B4E0A570F220C430D850910
:1066A000EF0E270A570B690A5E0F140C670DD3090A
:1066B000B709170A710B870A650F320CFF009209A0
:1066C000950F2B0A8B0BA20A6C0F11101F01EA0900
:1066D000B10F1B0AA50BBD0A730FA40D11019F0971
:1066E000E10F2F0ADB0BF30A810F9D0D2D01FC0931
:1066F000CC0F1F0ABF0BD80A7A0FE50D6712290EBF
:10670000490E690E890EA90EF50EC90E090E671203
:106710004C0E6C0E8C0EAC0E020FCC0E0C0E2C0E12
:1067200067126F0E8F0EAF0E0F0FCF0E0F0E2F0EC4
:106730004F0E6712920EB20E1C0FD20E120E320EB8
:10674000520E720E6712B50E290FD50E150E350EAC
:10675000550E750E950E6712360FD80E1B0E3B0E9A
:106760005B0E7B0E9B0EBB0EC10DDB0E180E380EA2
:10677000580E780E980EB80E430F67123D0358035B
:1067800073038E03A903C403F303DF03EC050F06B1
:106790002E064D066C068B06C406AA063B0457045B
:1067A00073048F04AD04C904EA04E5041407340734
:1067B000540774079707B707E907D70732053C0561
:1067C000460550055A05640575056E0539084108EA
:1067D00049085108590861086E08690897059F051E
:1067E000A705AF05B705BF05CC05C7058E08A808E6
:1067F000C208DC08F608150932092F0971010C0DD1
:106800003B01570D0B02CC0C1A04440CBE01900D39
:106810005F012A10A402700DEF06550C8401190DBA
:106820005701AC0D3102DC0C1105660CD101F20DE3
:106830006301B70DCA0226101408770C9701260DC4
:106840005B01F70F5702EC0C8905880CE401AC09D9
:106850006701FF0DF00267128108990CAA01330D40
:106860004301CC0D7D02FC0CDF05AA0CF701AF093A
:106870006C01D90D160326105809BB0C2278550659
:1068800003D5A3890133A38170BD053BA089236291
:106890000CF068F8A38940B201301844A08170BDA3
:1068A0002278D007EDD4053BA08923620CF05AF87A
:1068B000A38940B201301844A08170BD22785106EE
:1068C000DFD5053BA08923620CF04CF8A38940B2C8
:1068D00001301844A08170BD2278D207D1D5053B84
:1068E000A08923620CF03EF8A38940B2013018441D
:1068F000A08170BD237813F0400F07D0A389023325
:10690000A38170BD94F90030002BF7DBA0894FF014
:106910000005431CA3810CF025F860F30705A0894E
:106920000CF020F860F30F25A58170BD237813F0DB
:10693000010FE2E7237813F0040FDEE7237813F06A
:10694000400F06E0237813F0010F02E0237813F0E4
:10695000040FD3D0DAE794F90030002BCEDAD5E774
:106960002278560602F1F280E089063B2362431C3E
:10697000E3810BF0F7FF2073E089431CE3810BF008
:10698000F1FF607370BD2278D50702F1DF80E089E6
:10699000063B2362431CE3810BF0E4FF2073E08994
:1069A000431CE3810BF0DEFF607370BD227850075B
:1069B00002F1CC80E089063B2362431CE3810BF0AB
:1069C000D1FF2073E089431CE3810BF0CBFF6073A0
:1069D00070BD94F90020002AC2F2B880E089063B1D
:1069E0002362431CE3810BF0BDFF2073E089431C4D
:1069F000E3810BF0B7FF607370BD2278510642F15E
:106A0000A580E089063B2362431CE3810BF0AAFFCB
:106A10002073E089431CE3810BF0A4FF607370BD19
:106A20002278D20742F19280E089063B2362431C20
:106A3000E3810BF097FF2073E089431CE3810BF0A7
:106A400091FF607370BD2278560742F17F80E08924
:106A5000063B2362431CE3810BF084FF2073E08933
:106A6000431CE3810BF07EFF607370BD94F900203E
:106A7000002A82F26B80E089063B2362431CE3819B
:106A80000BF070FF2073E089431CE3810BF06AFF79
:106A9000607370BD227855063FF530AFA089073B83
:106AA0004FF000052362431CA3810BF05BFF60F3F2
:106AB0000705A089431CA3810BF054FF60F30F2549
:106AC000E089617B013880B2E0810CF079F9E089DE
:106AD000217B013880B2E0810CF072F9A58170BD94
:106AE0002278D0073FF50AAFA089073B4FF0000599
:106AF0002362431CA3810BF035FF60F30705A089D7
:106B0000431CA3810BF02EFF60F30F25E089617B0E
:106B1000013880B2E0810CF053F9E089217B013823
:106B200080B2E0810CF04CF9A58170BD227851074C
:106B30003FF5E4AEA089073B4FF000052362431CFC
:106B4000A3810BF00FFF60F30705A089431CA3810D
:106B50000BF008FF60F30F25E089617B013880B2FC
:106B6000E0810CF02DF9E089217B013880B2E081D1
:106B70000CF026F9A58170BD94F90020002AFFF6DB
:106B8000BDAEA089073B4FF000052362431CA381E3
:106B90000BF0E8FE60F30705A089431CA3810BF00E
:106BA000E1FE60F30F25E089617B013880B2E0816E
:106BB0000CF006F9E089217B013880B2E0810CF00D
:106BC000FFF8A58170BD227852067FF597AEA089A7
:106BD000073B4FF000052362431CA3810BF0C2FE6C
:106BE00060F30705A089431CA3810BF0BBFE60F393
:106BF0000F25E089617B013880B2E0810CF0E0F87C
:106C0000E089217B013880B2E0810CF0D9F8A581C0
:106C100070BD2278D6077FF571AEA089073B4FF093
:106C200000052362431CA3810BF09CFE60F3070563
:106C3000A089431CA3810BF095FE60F30F25E0892A
